:100000000C9435000C945D000C945D000C945D0024
:100010000C945D000C945D000C945D000C945D00EC
:100020000C945D000C945D000C945D000C945D00DC
:100030000C945D000C945D000C945D000C945D00CC
:100040000C94E9010C945D000C94B7010C9491019F
:100050000C945D000C945D000C945D000C945D00AC
:100060000C945D000C945D00440311241FBECFEF7F
:10007000D8E0DEBFCDBF11E0A0E0B1E0E0E0F9E004
:1000800002C005900D92AA31B107D9F721E0AAE18B
:10009000B1E001C01D92A03CB207E1F710E0C5E35A
:1000A000D0E004C02197FE010E947804C433D10738
:1000B000C9F70E9433020C947E040C940000AF92A6
:1000C000BF92CF92DF92EF92FF920F931F93CF9345
:1000D000DF936C017B018B01040F151FEB015E01A7
:1000E000AE18BF08C017D10759F06991D601ED913C
:1000F000FC910190F081E02DC6010995892B79F7DB
:10010000C501DF91CF911F910F91FF90EF90DF908C
:10011000CF90BF90AF900895FC01538D448D252F53
:1001200030E0842F90E0821B930B541710F0CF9691
:10013000089501970895FC01918D828D981761F0C3
:10014000A28DAE0FBF2FB11D5D968C91928D9F5FDA
:100150009F73928F90E008958FEF9FEF0895FC01B9
:10016000918D828D981731F0828DE80FF11D858D6C
:1001700090E008958FEF9FEF0895FC01918D228DFF
:10018000892F90E0805C9F4F821B91098F73992784
:10019000089583E291E00E94BD0021E0892B09F4DB
:1001A00020E0822F089580E090E0892B29F00E94C2
:1001B000C90081110C9400000895FC01A48DA80FC2
:1001C000B92FB11DA35ABF4F2C91848D90E0019699
:1001D0008F739927848FA689B7892C93A089B189B9
:1001E0008C91837080648C93938D848D981306C05A
:1001F0000288F389E02D80818F7D80830895EF92BE
:10020000FF920F931F93CF93DF93EC0181E0888FD0
:100210009B8D8C8D98131AC0E889F989808185FFA0
:1002200015C09FB7F894EE89FF896083E889F98942
:1002300080818370806480839FBF81E090E0DF9144
:10024000CF911F910F91FF90EF900895F62E0B8D97
:1002500010E00F5F1F4F0F731127E02E8C8D8E1152
:100260000CC00FB607FCFACFE889F989808185FFB9
:10027000F5CFCE010E94DD00F1CFEB8DEC0FFD2F0D
:10028000F11DE35AFF4FF0829FB7F8940B8FEA8974
:10029000FB8980818062CFCFCF93DF93EC01888D83
:1002A0008823B9F0AA89BB89E889F9898C9185FDF1
:1002B00003C0808186FD0DC00FB607FCF7CF8C917F
:1002C00085FFF2CF808185FFEDCFCE010E94DD005A
:1002D000E9CFDF91CF9108953FB7F89480911F0146
:1002E00090912001A0912101B091220126B5A89BF7
:1002F00005C02F3F19F00196A11DB11D3FBFBA2FB8
:10030000A92F982F8827BC01CD01620F711D811D77
:10031000911D42E0660F771F881F991F4A95D1F7FC
:1003200008951F920F920FB60F9211242F933F93AF
:100330004F935F936F937F938F939F93AF93BF93ED
:10034000EF93FF9383E291E00E94DD00FF91EF9134
:10035000BF91AF919F918F917F916F915F914F91DD
:100360003F912F910F900FBE0F901F9018951F92E5
:100370000F920FB60F9211242F938F939F93EF93A9
:10038000FF93E0913301F09134018081E0913901D4
:10039000F0913A0182FD1BC0908180913C018F5FFA
:1003A0008F7320913D01821741F0E0913C01F0E014
:1003B000ED5DFE4F958F80933C01FF91EF919F91F2
:1003C0008F912F910F900FBE0F901F9018958081E5
:1003D000F4CF1F920F920FB60F9211242F933F93D9
:1003E0008F939F93AF93BF9380911B0190911C01BA
:1003F000A0911D01B0911E0130911A0123E0230F3D
:100400002D3758F50196A11DB11D20931A01809337
:100410001B0190931C01A0931D01B0931E018091BC
:100420001F0190912001A0912101B091220101961C
:10043000A11DB11D80931F0190932001A093210164
:10044000B0932201BF91AF919F918F913F912F91D6
:100450000F900FBE0F901F90189526E8230F02965D
:10046000A11DB11DD2CFCF93DF93CDB7DEB7A1973A
:100470000FB6F894DEBF0FBECDBF789484B582600E
:1004800084BD84B5816084BD85B5826085BD85B538
:10049000816085BD80916E00816080936E001092B6
:1004A0008100809181008260809381008091810031
:1004B00081608093810080918000816080938000C2
:1004C0008091B10084608093B1008091B000816020
:1004D0008093B00080917A00846080937A0080914C
:1004E0007A00826080937A0080917A0081608093A4
:1004F0007A0080917A00806880937A001092C1001F
:10050000E0913301F091340182E08083E0912F018A
:10051000F09130011082E0913101F09132018FECC5
:10052000808310923B01E0913701F091380186E021
:100530008083E0913501F091360180818061808374
:10054000E0913501F0913601808188608083E091EF
:100550003501F0913601808180688083E09135011A
:10056000F091360180818F7D808380E480937C00D0
:1005700080917A00806480937A0080917A0086FD71
:10058000FCCF8091780060917900762F682F072E3C
:10059000000C880B990B611571058105910511F00F
:1005A0000E940C0499E0492E512C612C712C8E0173
:1005B000005E1F4F20E0222E20E0322E0E94BD035D
:1005C000A30192010E9415046B017C01DC01CB01A7
:1005D0000196A11DB11DB7FF53C06DE283E291E00A
:1005E0000E94FF0019A2C094D094E094F09420E3FC
:1005F000C20EC8A2F80101900020E9F73197AF01BF
:10060000401B510BB80183E291E00E945F0042E081
:1006100050E066E171E083E291E00E945F000E9499
:100620006C016B017C0188EE882E83E0982EA12C52
:10063000B12C0E946C016C197D098E099F09683EDE
:10064000734081059105A8F381E0881A9108A108FB
:10065000B10828EEC20E23E0D21EE11CF11C811469
:100660009104A104B10429F72114310409F4A6CF9F
:100670000E94C900882309F4A1CF0E9400009ECFE8
:1006800019A2805D88A3B6CFE3E2F1E01382128263
:1006900088EE93E0A0E0B0E084839583A683B783DF
:1006A00088E091E09183808385EC90E09587848752
:1006B00084EC90E09787868780EC90E0918B808B2C
:1006C00081EC90E0938B828B82EC90E0958B848B15
:1006D00086EC90E0978B868B118E128E138E148E83
:1006E00008958F929F92AF92BF92CF92DF92EF9236
:1006F000FF92CF93DF93EC01688179818A819B819E
:10070000611571058105910521F464E279ED8BE5B0
:1007100097E02DE133EF41E050E00E9415044901DC
:100720005A019B01AC01A7EAB1E40E9434046B01B9
:100730007C01ACEEB4EFA50194010E944204C60E08
:10074000D71EE81EF91EF7FE06C081E0C81AD108C0
:10075000E10880E8F80AC882D982EA82FB82C701F0
:10076000B6019F77DF91CF91FF90EF90DF90CF9010
:10077000BF90AF909F908F9008958F929F92AF926D
:10078000BF92CF92DF92EF92FF9260910001709141
:1007900001018091020190910301611571058105AC
:1007A000910521F464E279ED8BE597E02DE133EFDB
:1007B00041E050E00E94150449015A019B01AC013F
:1007C000A7EAB1E40E9434046B017C01ACEEB4EF03
:1007D000A50194010E944204C60ED71EE81EF91E10
:1007E000F7FE06C081E0C81AD108E10880E8F80ADF
:1007F000C0920001D0920101E0920201F092030147
:10080000C701B6019F77FF90EF90DF90CF90BF9028
:10081000AF909F908F9008956093000170930101B5
:1008200080930201909303010895052E97FB1EF417
:1008300000940E942C0457FD07D00E94470407FC37
:1008400003D04EF40C942C0450954095309521958E
:100850003F4F4F4F5F4F08959095809570956195EC
:100860007F4F8F4F9F4F08950E946904A59F900D61
:10087000B49F900DA49F800D911D11240895B7FF82
:100880000C9434040E943404821B930B0895A1E25B
:100890001A2EAA1BBB1BFD010DC0AA1FBB1FEE1FFA
:1008A000FF1FA217B307E407F50720F0A21BB30B45
:1008B000E40BF50B661F771F881F991F1A9469F7C1
:1008C00060957095809590959B01AC01BD01CF011D
:1008D0000895A29FB001B39FC001A39F700D811D19
:1008E0001124911DB29F700D811D1124911D089539
:1008F000EE0FFF1F0590F491E02D0994F894FFCFBF
:100900000100000000000000FF005F008C004C01AF
:0A091000BD009B00AF000D0A0000BF
:00000001FF
